{
  "contractName": "Coinflip",
  "abi": [
    {
      "constant": true,
      "inputs": [
        {
          "name": "",
          "type": "bytes32"
        }
      ],
      "name": "betting",
      "outputs": [
        {
          "name": "player",
          "type": "address"
        },
        {
          "name": "value",
          "type": "uint256"
        },
        {
          "name": "total",
          "type": "bool"
        }
      ],
      "payable": false,
      "stateMutability": "view",
      "type": "function"
    },
    {
      "inputs": [
        {
          "name": "a",
          "type": "uint256"
        },
        {
          "name": "b",
          "type": "uint256"
        }
      ],
      "payable": false,
      "stateMutability": "view",
      "type": "function",
      "constant": true,
      "name": "add",
      "outputs": [
        {
          "name": "",
          "type": "uint256"
        }
      ]
    },
    {
      "constant": true,
      "inputs": [
        {
          "name": "a",
          "type": "uint256"
        },
        {
          "name": "b",
          "type": "uint256"
        }
      ],
      "name": "div",
      "outputs": [
        {
          "name": "",
          "type": "uint256"
        }
      ],
      "payable": false,
      "stateMutability": "view",
      "type": "function"
    },
    {
      "constant": true,
      "inputs": [
        {
          "name": "a",
          "type": "uint256"
        },
        {
          "name": "b",
          "type": "uint256"
        }
      ],
      "name": "sub",
      "outputs": [
        {
          "name": "",
          "type": "uint256"
        }
      ],
      "payable": false,
      "stateMutability": "view",
      "type": "function"
    },
    {
      "inputs": [
        {
          "name": "a",
          "type": "uint256"
        },
        {
          "name": "b",
          "type": "uint256"
        }
      ],
      "payable": false,
      "stateMutability": "view",
      "type": "function",
      "constant": true,
      "name": "mul",
      "outputs": [
        {
          "name": "",
          "type": "uint256"
        }
      ]
    },
    {
      "anonymous": false,
      "inputs": [
        {
          "indexed": true,
          "name": "player",
          "type": "address"
        },
        {
          "indexed": false,
          "name": "Id",
          "type": "bytes32"
        },
        {
          "indexed": false,
          "name": "value",
          "type": "uint256"
        },
        {
          "indexed": false,
          "name": "total",
          "type": "bool"
        }
      ],
      "name": "contractOwner",
      "type": "function",
      "constant": true,
      "outputs": [
        {
          "name": "",
          "type": "address"
        }
      ],
      "payable": false,
      "stateMutability": "view"
    },
    {
      "anonymous": false,
      "inputs": [
        {
          "indexed": true,
          "name": "",
          "type": "address"
        },
        {
          "indexed": false,
          "name": "queryId",
          "type": "bytes32"
        },
        {
          "indexed": false,
          "name": "value",
          "type": "uint256"
        }
      ],
      "name": "waiting",
      "type": "function",
      "constant": true,
      "outputs": [
        {
          "name": "",
          "type": "bool"
        }
      ],
      "payable": false,
      "stateMutability": "view"
    },
    {
      "constant": true,
      "inputs": [
        {
          "name": "_queryId",
          "type": "bytes32"
        },
        {
          "name": "_guess",
          "type": "bool"
        }
      ],
      "name": "consecutiveWins",
      "outputs": [
        {
          "name": "",
          "type": "uint256"
        }
      ],
      "payable": false,
      "stateMutability": "view",
      "type": "function"
    },
    {
      "inputs": [],
      "payable": false,
      "stateMutability": "nonpayable",
      "type": "constructor"
    },
    {
      "anonymous": false,
      "inputs": [
        {
          "indexed": true,
          "name": "player",
          "type": "address"
        },
        {
          "indexed": false,
          "name": "Id",
          "type": "bytes32"
        },
        {
          "indexed": false,
          "name": "value",
          "type": "uint256"
        },
        {
          "indexed": false,
          "name": "total",
          "type": "bool"
        }
      ],
      "name": "betTaken",
      "type": "event"
    },
    {
      "anonymous": false,
      "inputs": [
        {
          "indexed": true,
          "name": "player",
          "type": "address"
        },
        {
          "indexed": false,
          "name": "queryId",
          "type": "bytes32"
        },
        {
          "indexed": false,
          "name": "value",
          "type": "uint256"
        }
      ],
      "name": "betPlaced",
      "type": "event"
    },
    {
      "constant": false,
      "inputs": [
        {
          "name": "_guess",
          "type": "bool"
        }
      ],
      "name": "flip",
      "outputs": [
        {
          "name": "",
          "type": "bool"
        }
      ],
      "payable": false,
      "stateMutability": "nonpayable",
      "type": "function"
    }
  ],
  "bytecode": "0x60806040527f800000000000000000000000000000000000000000000000000000000000000060035534801561003457600080fd5b50336000806101000a81548173ffffffffffffffffffffffffffffffffffffffff021916908373ffffffffffffffffffffffffffffffffffffffff160217905550600060018190555061068d8061008c6000396000f3fe608060405260043610610099576000357c0100000000000000000000000000000000000000000000000000000000900463ffffffff1680631d263f671461009e578063303b2f4b146100f3578063771602f714610180578063a391c15b146101d9578063b67d77c514610232578063c8a4ac9c1461028b578063ce606ee0146102e4578063e437786d1461033b578063e6f334d7146103a4575b600080fd5b3480156100aa57600080fd5b506100d9600480360360208110156100c157600080fd5b810190808035151590602001909291905050506103cf565b604051808215151515815260200191505060405180910390f35b3480156100ff57600080fd5b5061012c6004803603602081101561011657600080fd5b810190808035906020019092919050505061053a565b604051808473ffffffffffffffffffffffffffffffffffffffff1673ffffffffffffffffffffffffffffffffffffffff16815260200183815260200182151515158152602001935050505060405180910390f35b34801561018c57600080fd5b506101c3600480360360408110156101a357600080fd5b810190808035906020019092919080359060200190929190505050610591565b6040518082815260200191505060405180910390f35b3480156101e557600080fd5b5061021c600480360360408110156101fc57600080fd5b8101908080359060200190929190803590602001909291905050506105af565b6040518082815260200191505060405180910390f35b34801561023e57600080fd5b506102756004803603604081101561025557600080fd5b8101908080359060200190929190803590602001909291905050506105ca565b6040518082815260200191505060405180910390f35b34801561029757600080fd5b506102ce600480360360408110156102ae57600080fd5b8101908080359060200190929190803590602001909291905050506105e3565b6040518082815260200191505060405180910390f35b3480156102f057600080fd5b506102f9610616565b604051808273ffffffffffffffffffffffffffffffffffffffff1673ffffffffffffffffffffffffffffffffffffffff16815260200191505060405180910390f35b34801561034757600080fd5b5061038a6004803603602081101561035e57600080fd5b81019080803573ffffffffffffffffffffffffffffffffffffffff16906020019092919050505061063b565b604051808215151515815260200191505060405180910390f35b3480156103b057600080fd5b506103b961065b565b6040518082815260200191505060405180910390f35b6000801515600660003373ffffffffffffffffffffffffffffffffffffffff1673ffffffffffffffffffffffffffffffffffffffff16815260200190815260200160002060009054906101000a900460ff16151514151561042f57600080fd5b600060014303406001900490506001600660003373ffffffffffffffffffffffffffffffffffffffff1673ffffffffffffffffffffffffffffffffffffffff16815260200190815260200160002060006101000a81548160ff0219169083151502179055508060025414156104a357600080fd5b8060028190555060006002826040516020018082815260200191505060405160208183030381529060405280519060200120600190048115156104e257fe5b0690506000600182146104f65760006104f9565b60015b905084151581151514156105255760016000815480929190600101919050555060019350505050610535565b6000600181905550600093505050505b919050565b60056020528060005260406000206000915090508060000160009054906101000a900473ffffffffffffffffffffffffffffffffffffffff16908060010154908060020160009054906101000a900460ff16905083565b60008082840190508381101515156105a557fe5b8091505092915050565b60008082848115156105bd57fe5b0490508091505092915050565b60008282111515156105d857fe5b818303905092915050565b60008082840290506000841480610604575082848281151561060157fe5b04145b151561060c57fe5b8091505092915050565b6000809054906101000a900473ffffffffffffffffffffffffffffffffffffffff1681565b60066020528060005260406000206000915054906101000a900460ff1681565b6001548156fea165627a7a723058200a08e9758bc18613a16f0c4dc4069c037474fd8f63576f51ec336d2676ce90dc0029",
  "source": "pragma solidity 0.5.0;\n\n\nimport \"./SafeMath.sol\";\n\ncontract Coinflip is SafeMath  {\n   \n    uint256 public consecutiveWins;\n    uint256 lastHash;\n    uint256 FACTOR = 57896044618658097711785492504343953926634992332820282019728792003956564819968;\n    bytes32 queryId;\n\n    struct placeBet {\n        address payable player;\n        uint value;\n        bool total;\n    }\n\n    event betTaken(address indexed player, bytes32 Id, uint value, bool total);\n    event betPlaced(address indexed player,bytes32 queryId, uint value);\n\n    mapping (bytes32 => placeBet) public betting;\n    mapping (address => bool) public waiting;\n\n    constructor() public {\n        consecutiveWins = 0;\n    }\n\n    modifier costs(uint cost){\n        uint jackpot = address(this).balance / 2;\n        require(msg.value <= jackpot, \"Jackpot is the max bet you can make\"); \n        require(msg.value >= cost, \"The minimum bet you can make is 0.01 Ether\");\n        _;\n    }\n\n    function flip(bool _guess) public returns (bool) {\n        require(waiting[msg.sender] == false);\n        uint256 blockValue = uint256(blockhash(block.number -1 ));\n        waiting[msg.sender] = true;\n\n        if (lastHash == blockValue) {\n            revert();\n        }\n\n        lastHash = blockValue;\n        uint256 coinflip = uint256(keccak256(abi.encodePacked(blockValue))) % 2;\n        bool side = coinflip == 1 ? true : false;\n\n        if (side == _guess) {\n            consecutiveWins++;\n            return true;\n        } else {\n            consecutiveWins = 0;\n            return false;\n        }\n    }\n\n}",
  "sourcePath": "/Users/cherrybluemoon/flipper/contracts/Flipcoin.sol",
  "compiler": {
    "name": "solc",
    "version": "0.5.0+commit.1d4f565a.Emscripten.clang"
  },
  "schemaVersion": "3.0.8",
  "updatedAt": "2020-06-11T11:59:07.221Z",
  "devdoc": {
    "methods": {}
  },
  "userdoc": {
    "methods": {}
  }
}