{
  "contractName": "Ownable",
  "abi": [
    {
      "constant": true,
      "inputs": [],
      "name": "contractOwner",
      "outputs": [
        {
          "name": "",
          "type": "address"
        }
      ],
      "payable": false,
      "stateMutability": "view",
      "type": "function"
    },
    {
      "inputs": [],
      "payable": false,
      "stateMutability": "nonpayable",
      "type": "constructor"
    }
  ],
  "bytecode": "0x608060405234801561001057600080fd5b50336000806101000a81548173ffffffffffffffffffffffffffffffffffffffff021916908373ffffffffffffffffffffffffffffffffffffffff16021790555060e98061005f6000396000f3fe608060405260043610603f576000357c0100000000000000000000000000000000000000000000000000000000900463ffffffff168063ce606ee0146044575b600080fd5b348015604f57600080fd5b5060566098565b604051808273ffffffffffffffffffffffffffffffffffffffff1673ffffffffffffffffffffffffffffffffffffffff16815260200191505060405180910390f35b6000809054906101000a900473ffffffffffffffffffffffffffffffffffffffff168156fea165627a7a72305820b83e32a0fe95fd70cb55ca8fd71e3d09151b509d2bdfe8e4e6239bb0c1aad5800029",
  "source": "pragma solidity 0.5.0;\n\ncontract Ownable {\n\n    address public contractOwner;\n\n    //** Constructor Section */\n    constructor() public{\n        contractOwner = msg.sender;\n    }\n    //** Modifier Section */\n    //Only Owner of the Contract can execute the function modifier\n    modifier onlyContractOwner() {\n        require(msg.sender == contractOwner, \"You are not entitled to execute this function.\");\n        _;\n    }\n   \n\n}",
  "sourcePath": "/Users/cherrybluemoon/flipper/contracts/Ownable.sol",
  "compiler": {
    "name": "solc",
    "version": "0.5.0+commit.1d4f565a.Emscripten.clang"
  },
  "schemaVersion": "3.0.8",
  "updatedAt": "2020-06-11T11:03:33.587Z",
  "devdoc": {
    "methods": {}
  },
  "userdoc": {
    "methods": {}
  }
}