{
  "contractName": "SafeMath",
  "abi": [
    {
      "constant": true,
      "inputs": [],
      "name": "contractOwner",
      "outputs": [
        {
          "name": "",
          "type": "address"
        }
      ],
      "payable": false,
      "stateMutability": "view",
      "type": "function"
    },
    {
      "constant": true,
      "inputs": [
        {
          "name": "a",
          "type": "uint256"
        },
        {
          "name": "b",
          "type": "uint256"
        }
      ],
      "name": "mul",
      "outputs": [
        {
          "name": "",
          "type": "uint256"
        }
      ],
      "payable": false,
      "stateMutability": "view",
      "type": "function"
    },
    {
      "constant": true,
      "inputs": [
        {
          "name": "a",
          "type": "uint256"
        },
        {
          "name": "b",
          "type": "uint256"
        }
      ],
      "name": "div",
      "outputs": [
        {
          "name": "",
          "type": "uint256"
        }
      ],
      "payable": false,
      "stateMutability": "view",
      "type": "function"
    },
    {
      "constant": true,
      "inputs": [
        {
          "name": "a",
          "type": "uint256"
        },
        {
          "name": "b",
          "type": "uint256"
        }
      ],
      "name": "sub",
      "outputs": [
        {
          "name": "",
          "type": "uint256"
        }
      ],
      "payable": false,
      "stateMutability": "view",
      "type": "function"
    },
    {
      "constant": true,
      "inputs": [
        {
          "name": "a",
          "type": "uint256"
        },
        {
          "name": "b",
          "type": "uint256"
        }
      ],
      "name": "add",
      "outputs": [
        {
          "name": "",
          "type": "uint256"
        }
      ],
      "payable": false,
      "stateMutability": "view",
      "type": "function"
    }
  ],
  "bytecode": "0x6080604052336000806101000a81548173ffffffffffffffffffffffffffffffffffffffff021916908373ffffffffffffffffffffffffffffffffffffffff160217905550610303806100536000396000f3fe60806040526004361061006d576000357c0100000000000000000000000000000000000000000000000000000000900463ffffffff168063771602f714610072578063a391c15b146100cb578063b67d77c514610124578063c8a4ac9c1461017d578063ce606ee0146101d6575b600080fd5b34801561007e57600080fd5b506100b56004803603604081101561009557600080fd5b81019080803590602001909291908035906020019092919050505061022d565b6040518082815260200191505060405180910390f35b3480156100d757600080fd5b5061010e600480360360408110156100ee57600080fd5b81019080803590602001909291908035906020019092919050505061024b565b6040518082815260200191505060405180910390f35b34801561013057600080fd5b506101676004803603604081101561014757600080fd5b810190808035906020019092919080359060200190929190505050610266565b6040518082815260200191505060405180910390f35b34801561018957600080fd5b506101c0600480360360408110156101a057600080fd5b81019080803590602001909291908035906020019092919050505061027f565b6040518082815260200191505060405180910390f35b3480156101e257600080fd5b506101eb6102b2565b604051808273ffffffffffffffffffffffffffffffffffffffff1673ffffffffffffffffffffffffffffffffffffffff16815260200191505060405180910390f35b600080828401905083811015151561024157fe5b8091505092915050565b600080828481151561025957fe5b0490508091505092915050565b600082821115151561027457fe5b818303905092915050565b600080828402905060008414806102a0575082848281151561029d57fe5b04145b15156102a857fe5b8091505092915050565b6000809054906101000a900473ffffffffffffffffffffffffffffffffffffffff168156fea165627a7a72305820146fa8e657b15ba5d230375cae4ff475af7244093ae7c9d6535b1fb4a371baba0029",
  "source": "pragma solidity 0.5.0;\nimport\"./Ownable.sol\";\n\ncontract SafeMath is Ownable {\n\n  function mul(uint256 a, uint256 b) public view returns (uint256) {\n    uint256 c = a * b;\n    assert(a == 0 || c / a == b);\n    return c;\n  }\n\n  function div(uint256 a, uint256 b) public view returns (uint256) {\n    // assert(b > 0); // Solidity automatically throws when dividing by 0\n    uint256 c = a / b;\n    //assert(a == b * c + a % b); // There is no case in which this doesn't hold\n    return c;\n  }\n\n  function sub(uint256 a, uint256 b) public view returns (uint256) {\n    assert(b <= a);\n    return a - b;\n  }\n\n  function add(uint256 a, uint256 b) public view returns (uint256) {\n    uint256 c = a + b;\n    assert(c >= a);\n    return c;\n  }\n}",
  "sourcePath": "/Users/cherrybluemoon/flipper/contracts/SafeMath.sol",
  "compiler": {
    "name": "solc",
    "version": "0.5.0+commit.1d4f565a.Emscripten.clang"
  },
  "schemaVersion": "3.0.8",
  "updatedAt": "2020-06-11T11:37:11.473Z",
  "devdoc": {
    "methods": {}
  },
  "userdoc": {
    "methods": {}
  }
}